:100000000C942A000C9447000C9447000C94470071
:100010000C9447000C9447000C9447000C94470044
:100020000C9447000C9447000C9447000C94470034
:100030000C9447000C9447000C9447000C94470024
:100040000C9447000C9447000C9447000C94470014
:100050000C94470011241FBECFE5D8E0DEBFCDBF12
:1000600010E0A0E6B0E0EAEAF1E202C005900D92ED
:10007000AA3AB107D9F710E0AAEAB0E001C01D9290
:10008000A03BB107E1F70E94FC0E0C94D3100C9436
:100090000000EF92FF920F931F937B018C0120E0F1
:1000A00030E040E05FE40E94F50388238CF0C80153
:1000B000B70120E030E040E05FE40E94C1010E940F
:1000C00055049B01AC01205030404040504806C0D0
:1000D000C801B7010E9455049B01AC01B901CA01D6
:1000E0001F910F91FF90EF900895A0E0B0E0EBE733
:1000F000F0E00C94DF0FDC012B01FA019C919230AF
:1001000008F439C1EB018881823008F433C194309E
:1001100069F4843009F02FC111969C91119789815F
:10012000981709F428C1A5E8B0E025C1843009F486
:1001300021C18230A9F4923009F01DC19A01AD01AC
:1001400088E0EA010990AE01E90109929E0181501F
:10015000C1F7E201898111969C918923818308C1AD
:10016000923009F407C112962D903C901397EB0141
:100170008A819B811496AD90BD90CD90DC901797AD
:10018000EC80FD800E811F819101281B390BB90184
:1001900037FF04C066277727621B730B6032710537
:1001A0000CF061C0121613066CF537014801062EDB
:1001B00004C096948794779467940A94D2F721E0C8
:1001C00030E040E050E004C0220F331F441F551FB1
:1001D0006A95D2F721503040404050402E213F21B7
:1001E00040235123211531054105510521F021E01E
:1001F00030E040E050E079018A01E628F72808293C
:1002000019293CC0232BD1F1260E371E350146019A
:10021000062E04C096948794779467940A94D2F734
:1002200021E030E040E050E004C0220F331F441FC3
:10023000551F6A95D2F721503040404050402A2146
:100240003B214C215D21211531054105510521F04E
:1002500021E030E040E050E059016A01A628B728CB
:10026000C828D9280BC0821593052CF01C01AA249C
:10027000BB24650103C0EE24FF24870111969C91E5
:10028000D20111968C91981709F445C0992339F041
:10029000A80197012A193B094C095D0906C0A6016E
:1002A00095012E193F09400B510B57FD08C01182D3
:1002B0003382228224833583468357831DC081E0A5
:1002C00081833382228288279927DC01821B930B4A
:1002D000A40BB50B84839583A683B7830DC0220F2F
:1002E000331F441F551F24833583468357838281E0
:1002F000938101979383828324813581468157813D
:10030000DA01C9010197A109B1098F5F9F4FAF4F72
:10031000BF4328F30BC0918333822282EA0CFB1C7B
:100320000C1D1D1DE482F5820683178383E0808304
:10033000248135814681578157FF1AC0C901AA27F8
:1003400097FDA095BA2F81709070A070B0705695EF
:10035000479537952795822B932BA42BB52B848318
:100360009583A683B7838281938101969383828349
:10037000DF0101C0D201CD01CDB7DEB7E2E10C94BF
:10038000FB0FA0E2B0E0E7ECF1E00C94EB0F698327
:100390007A838B839C832D833E834F835887E9E048
:1003A000EE2EF12CEC0EFD1ECE010196B7010E943F
:1003B0007E058E010F5E1F4FCE010596B8010E948B
:1003C0007E058A8991E089278A8BC701B801AE0131
:1003D000475E5F4F0E9475000E94A904A096E6E068
:1003E0000C940710A0E2B0E0E8EFF1E00C94EB0F02
:1003F00069837A838B839C832D833E834F835887C5
:10040000F9E0EF2EF12CEC0EFD1ECE010196B701A6
:100410000E947E058E010F5E1F4FCE010596B8012A
:100420000E947E05C701B801AE01475E5F4F0E9482
:1004300075000E94A904A096E6E00C940710A0E2C3
:10044000B0E0E5E2F2E00C94DF0F69837A838B83FE
:100450009C832D833E834F835887CE010196BE0136
:10046000675F7F4F0E947E05CE010596BE016F5EDD
:100470007F4F0E947E059985923088F0898982306D
:10048000C8F0943019F4823051F404C0843029F457
:10049000923081F485E890E0C6C0923049F420E0C3
:1004A0009A858A89981321E02A87CE010996BBC0D4
:1004B000823049F420E09A858A89981321E02A8BBA
:1004C000CE014196B0C02D843E844F8458886D88FB
:1004D0007E888F88988CEE24FF248701AA24BB2471
:1004E000650140E050E060E070E0E0E0F0E0C10174
:1004F00081709070892BE9F0E60CF71C081D191D1E
:100500009A01AB012A0D3B1D4C1D5D1D80E090E062
:10051000A0E0B0E0E614F7040805190520F481E036
:1005200090E0A0E0B0E0BA01A901480F591F6A1F8E
:100530007B1FAA0CBB1CCC1CDD1C97FE08C081E0F5
:1005400090E0A0E0B0E0A82AB92ACA2ADB2A3196B6
:10055000E032F10549F0660C771C881C991C569412
:10056000479437942794C3CFFA85EA892B893C892D
:100570008B859C85280F391F2E5F3F4F17C0CA01FE
:1005800081709070892B61F016950795F794E79428
:1005900080E090E0A0E0B0E8E82AF92A0A2B1B2BC3
:1005A00076956795579547952F5F3F4F77FDE7CF36
:1005B0000CC0440F551F661F771F17FD4160EE0CDE
:1005C000FF1C001F111F21503040403090E05907A0
:1005D00090E0690790E4790760F32B8F3C8FDB0193
:1005E000CA018F779070A070B07080349105A1051A
:1005F000B10561F447FD0AC0E114F10401051105DC
:1006000029F0405C5F4F6F4F7F4F40781A8EFE1786
:1006100011F081E08A8F4D8F5E8F6F8F78A383E01A
:10062000898FCE0149960E94A904A096E2E10C941C
:10063000FB0FA8E1B0E0EFE1F3E00C94E70F698372
:100640007A838B839C832D833E834F835887B9E0C5
:10065000EB2EF12CEC0EFD1ECE010196B7010E948F
:100660007E058E010F5E1F4FCE010596B8010E94D8
:100670007E052985223008F47EC03989323010F495
:10068000B8017CC08A859A8989278A87243011F02D
:10069000223031F4231709F06EC065E870E06EC0B7
:1006A000343039F41D861E861F86188A1C861B86E8
:1006B00004C0323021F484E08987B7015FC02B8504
:1006C0003C858B899C89281B390B3C872B87ED84C3
:1006D000FE840F851889AD88BE88CF88D88CEA142F
:1006E000FB040C051D0540F4EE0CFF1C001F111F40
:1006F000215030403C872B8720E030E040E050E044
:1007000080E090E0A0E0B0E460E070E0EA14FB0478
:100710000C051D0540F0282B392B4A2B5B2BEA18C2
:10072000FB080C091D09B695A79597958795EE0CC2
:10073000FF1C001F111F6F5F7F4F6F31710531F775
:10074000DA01C9018F779070A070B0708034910584
:10075000A105B10561F427FD0AC0E114F10401050A
:10076000110529F0205C3F4F4F4F5F4F20782D87B8
:100770003E874F87588BBE01675F7F4FCB010E943A
:10078000A9046896EAE00C940310A8E1B0E0EBEC51
:10079000F3E00C94EB0F69837A838B839C832D8326
:1007A0003E834F83588789E0E82EF12CEC0EFD1E26
:1007B000CE010196B7010E947E058E010F5E1F4F8C
:1007C000CE010596B8010E947E058985823040F0F1
:1007D0008989823028F0C701B8010E94F60501C05E
:1007E0008FEF6896E6E00C940710A8E1B0E0EBEF1D
:1007F000F3E00C94EB0F69837A838B839C832D83C6
:100800003E834F83588789E0E82EF12CEC0EFD1EC5
:10081000CE010196B7010E947E058E010F5E1F4F2B
:10082000CE010596B8010E947E058985823040F090
:100830008989823028F0C701B8010E94F60501C0FD
:100840008FEF6896E6E00C940710A8E1B0E0EBE2C9
:10085000F4E00C94EB0F69837A838B839C832D8364
:100860003E834F83588789E0E82EF12CEC0EFD1E65
:10087000CE010196B7010E947E058E010F5E1F4FCB
:10088000CE010596B8010E947E058985823040F030
:100890008989823028F0C701B8010E94F60501C09D
:1008A00081E06896E6E00C940710ACE0B0E0EBE580
:1008B000F4E00C94EF0F69837A838B839C83CE01E1
:1008C0000196BE016B5F7F4F0E947E058D81823055
:1008D00061F1823050F1843021F48E81882351F10E
:1008E0002EC02F81388537FD20C06E812F31310514
:1008F0001CF06623F9F023C08EE190E0821B930B7D
:1009000029853A854B855C8504C056954795379572
:1009100027958A95D2F76623B1F05095409530958A
:1009200021953F4F4F4F5F4F0EC020E030E040E039
:1009300050E009C02FEF3FEF4FEF5FE704C020E02A
:1009400030E040E050E8B901CA012C96E2E00C9496
:100950000B10DF92EF92FF920F931F93FC01E48044
:10096000F58006811781D1808081823048F480E053
:1009700090E0A0E1B0E0E82AF92A0A2B1B2BA5C0E1
:10098000843009F49FC0823021F4EE24FF248701D3
:1009900005C0E114F1040105110519F4E0E0F0E0EF
:1009A00096C0628173819FEF623879070CF05BC05B
:1009B00022E83FEF261B370B2A3131052CF020E0CF
:1009C00030E040E050E02AC0B801A701022E04C088
:1009D00076956795579547950A94D2F781E090E010
:1009E000A0E0B0E004C0880F991FAA1FBB1F2A9582
:1009F000D2F70197A109B1098E219F21A023B1232C
:100A00000097A105B10521F081E090E0A0E0B0E001
:100A10009A01AB01282B392B4A2B5B2BDA01C90138
:100A20008F779070A070B07080349105A105B105EA
:100A300039F427FF09C0205C3F4F4F4F5F4F04C080
:100A4000215C3F4F4F4F5F4FE0E0F0E02030A0E0EF
:100A50003A07A0E04A07A0E45A0710F0E1E0F0E00E
:100A600079018A0127C06038710564F5FB01E158FE
:100A7000FF4FD801C7018F779070A070B07080349D
:100A80009105A105B10539F4E7FE0DC080E490E0C1
:100A9000A0E0B0E004C08FE390E0A0E0B0E0E80E9A
:100AA000F91E0A1F1B1F17FF05C016950795F7941F
:100AB000E794319687E016950795F794E7948A9521
:100AC000D1F705C0EE24FF248701EFEFF0E06E2F91
:100AD000679566276795902F9F77D794DD24D794E5
:100AE0008E2F8695492F462B582F5D29B701CA01B5
:100AF0001F910F91FF90EF90DF900895FC01DB01B3
:100B0000408151812281622F6F7770E0221F22275E
:100B1000221F9381892F880F822B282F30E0991F65
:100B20009927991F11969C93119721153105A9F5C5
:100B3000411551056105710511F482E037C082E865
:100B40009FEF13969C938E9312979A01AB0167E0E7
:100B5000220F331F441F551F6A95D1F783E08C93F2
:100B60000DC0220F331F441F551F12968D919C916B
:100B70001397019713969C938E931297203080E0E1
:100B8000380780E0480780E4580758F314962D93FF
:100B90003D934D935C93179708952F3F310579F45A
:100BA000411551056105710519F484E08C93089590
:100BB00064FF03C081E08C9312C01C9210C02F57B9
:100BC000304013963C932E93129783E08C9387E0EA
:100BD000440F551F661F771F8A95D1F770641496CE
:100BE0004D935D936D937C93179708951F93DC014C
:100BF000FB019C91923008F447C08081823008F458
:100C000043C0943051F411961C91843099F5818140
:100C1000682F70E0611B71093FC0843021F0923071
:100C200031F48230B9F18181882389F12DC0119688
:100C30001C9111978230F1F081811817D9F4129626
:100C40002D913C911397828193818217930794F0A1
:100C500028173907BCF014968D919D910D90BC9189
:100C6000A02D2481358146815781281739074A07ED
:100C70005B0718F4112341F00AC082179307A407F9
:100C8000B50740F4112319F061E070E005C06FEF83
:100C90007FEF02C060E070E0CB011F910895DF9309
:100CA000CF930F92CDB7DEB71982E0919100F0910A
:100CB00092001082E0919300F09194001082E091F4
:100CC0009500F09196001082E0919700F0919800C5
:100CD000108289810F90CF91DF910895DF93CF9398
:100CE00000D00F92CDB7DEB78A836B8319828A81D9
:100CF000843070F48A81882F90E0880F991FFC015E
:100D0000EF56FF4F0190F081E02D8B81808301C071
:100D1000198289810F900F900F90CF91DF910895E4
:100D2000DF93CF9300D00F92CDB7DEB78A836B836A
:100D300019828A81843080F48A81882F90E0880F1C
:100D4000991FFC01EF55FF4F0190F081E02D8B8141
:100D5000808381E0898301C0198289810F900F907F
:100D60000F90CF91DF910895DF93CF9300D000D003
:100D7000CDB7DEB78A837C836B8319828A81843006
:100D800090F48A81882F90E0880F991FFC01E75624
:100D9000FF4F0190F081E02D8081EB81FC81808309
:100DA00081E0898301C0198289810F900F900F9093
:100DB0000F90CF91DF910895DF93CF9300D000D0B3
:100DC000CDB7DEB78A837C836B8319828A818430B6
:100DD00090F48A81882F90E0880F991FFC01EF56CC
:100DE000FF4F0190F081E02D8081EB81FC818083B9
:100DF00081E0898301C0198289810F900F900F9043
:100E00000F90CF91DF910895DF93CF9300D000D062
:100E100000D0CDB7DEB78A836B834C8319828A8179
:100E2000843008F066C08B81883008F060C08C8107
:100E3000282F30E03E832D838D819E81009771F1B4
:100E40002D813E812130310509F04FC08A81882FE4
:100E500090E0880F991FFC01EF56FF4FA081B181F0
:100E60008A81882F90E0880F991FFC01EF56FF4F71
:100E70000190F081E02D8081482F8B81282F30E078
:100E800081E090E0022E02C0880F991F0A94E2F7D9
:100E9000809584238C9381E089832CC08A81882F5C
:100EA00090E0880F991FFC01EF56FF4FA081B181A0
:100EB0008A81882F90E0880F991FFC01EF56FF4F21
:100EC0000190F081E02D8081482F8B81282F30E028
:100ED00081E090E0022E02C0880F991F0A94E2F789
:100EE000842B8C9381E0898305C0198203C0198209
:100EF00001C01982898126960FB6F894DEBF0FBE15
:100F0000CDBFCF91DF910895DF93CF9300D000D074
:100F100000D0CDB7DEB78A836B834C8319828A8178
:100F2000843008F066C08B81883008F060C08C8106
:100F3000282F30E03E832D838D819E81009731F0F4
:100F40002D813E812130310549F14FC08A81882FA2
:100F500090E0880F991FFC01EF55FF4FA081B181F0
:100F60008A81882F90E0880F991FFC01EF55FF4F71
:100F70000190F081E02D8081482F8B81282F30E077
:100F800081E090E0022E02C0880F991F0A94E2F7D8
:100F9000809584238C9381E089832CC08A81882F5B
:100FA00090E0880F991FFC01EF55FF4FA081B181A0
:100FB0008A81882F90E0880F991FFC01EF55FF4F21
:100FC0000190F081E02D8081482F8B81282F30E027
:100FD00081E090E0022E02C0880F991F0A94E2F788
:100FE000842B8C9381E0898305C0198203C0198208
:100FF00001C01982898126960FB6F894DEBF0FBE14
:10100000CDBFCF91DF910895DF93CF9300D00F92A2
:10101000CDB7DEB78A836B838FEF89838A81843073
:10102000E8F48B818830D0F48A81882F90E0880F93
:10103000991FFC01E756FF4F0190F081E02D808160
:10104000282F30E08B81882F90E0A90102C05595B0
:1010500047958A95E2F7CA018170898389810F904B
:101060000F900F90CF91DF910895DF93CF9300D031
:1010700000D00F92CDB7DEB78A836B835D834C833C
:1010800019828A81843008F58B818830F0F48A8156
:10109000882F90E0880F991FFC01EF56FF4F0190B9
:1010A000F081E02D8081282F30E08B81882F90E027
:1010B000A90102C0559547958A95E2F7CA0181704A
:1010C000EC81FD81808381E0898389810F900F907D
:1010D0000F900F900F90CF91DF910895DF93CF93F2
:1010E00000D00F92CDB7DEB78A836B8319828A81D5
:1010F000843060F58B81883038F58B81882F90E0C3
:10110000880F991FFC01EF55FF4FA081B1818B81A2
:10111000882F90E0880F991FFC01EF55FF4F019039
:10112000F081E02D8081482F8B81282F30E081E0F5
:1011300090E0022E02C0880F991F0A94E2F78427DC
:101140008C9381E0898303C0198201C0198289814F
:101150000F900F900F90CF91DF910895DF93CF9371
:10116000CDB7DEB7A1970FB6F894DEBF0FBECDBFE7
:101170009F8F8E8F1D8EEE8DFF8D81818093AB00B2
:10118000EE8DFF8D80818093AA00EE8DFF8D85818D
:101190008093AF00EE8DFF8D82818093AC00EE8D49
:1011A000FF8D83818093AD00EE8DFF8D84818093D0
:1011B000AE008091AA006FEF0E946E068091AB0096
:1011C0006FEF0E946E068091AF00282F30E039A3A8
:1011D00028A388A199A18430910539F028A139A1CB
:1011E0002830310509F482C002C180E090E0A8E413
:1011F000B2E4898F9A8FAB8FBC8F698D7A8D8B8D7E
:101200009C8D20E030E04AEF54E40E941F02DC0194
:10121000CB018D8B9E8BAF8BB88F6D897E898F892B
:10122000988D20E030E040E85FE30E9425048823A9
:101230002CF481E090E09C8B8B8B3FC06D897E8984
:101240008F89988D20E03FEF4FE757E40E94C50358
:1012500018164CF5698D7A8D8B8D9C8D20E030E0D1
:1012600040E251E40E941F02DC01CB01BC01CD0130
:101270000E944900DC01CB019C8B8B8B0FC088EC5A
:1012800090E09A8B898B89899A890197F1F79A8BDB
:10129000898B8B899C8901979C8B8B8B8B899C89F3
:1012A000009769F714C06D897E898F89988D0E9497
:1012B0004900DC01CB019C8B8B8B8B899C89988BA3
:1012C0008F878F8598890197F1F7988B8F8788E2B0
:1012D0000E94020A8CE00E94020A81E00E94020A37
:1012E00086E00E94020A81E08D8F82C080E090E05B
:1012F000A8E4B2E48B879C87AD87BE876B857C852D
:101300008D859E8520E030E04AEF54E40E941F0264
:10131000DC01CB018F839887A987BA876F81788595
:1013200089859A8520E030E040E85FE30E9425044B
:1013300088232CF481E090E09E838D833FC06F81F1
:10134000788589859A8520E03FEF4FE757E40E9432
:10135000C50318164CF56B857C858D859E8520E030
:1013600030E040E251E40E941F02DC01CB01BC01ED
:10137000CD010E944900DC01CB019E838D830FC00B
:1013800088EC90E09C838B838B819C810197F1F7A3
:101390009C838B838D819E8101979E838D838D811C
:1013A0009E81009769F714C06F81788589859A8539
:1013B0000E944900DC01CB019E838D838D819E813B
:1013C0009A83898389819A810197F1F79A83898326
:1013D00088E30E94020A8CE00E94020A81E00E94D7
:1013E000020A86E00E94020A81E08D8F01C01D8EF4
:1013F0008D8DA1960FB6F894DEBF0FBECDBFCF91F5
:10140000DF910895DF93CF93CDB7DEB7E9970FB69D
:10141000F894DEBF0FBECDBF8FAB1EAA1DAA809170
:10142000AB009091AC00692F40E00E94840780914E
:10143000AB009091AD00692F40E00E94840780913D
:10144000AF00282F30E039AF28AF88AD99AD843098
:10145000910539F028AD39AD2830310509F47DC149
:101460000EC28091AA00982F9F708FA9807F892B30
:101470008DAB8091AB009091AE00692F41E00E944E
:1014800084078091AA006DA90E9490068091AB000C
:101490009091AE00692F40E00E94840780E090E0C8
:1014A000A8E4B3E489AB9AABABABBCAB69A97AA9AE
:1014B0008BA99CA92BEA3AEA4AE250E40E941F0257
:1014C000DC01CB018DA79EA7AFA7B8AB6DA57EA50C
:1014D0008FA598A920E030E040E85FE30E94250452
:1014E00088231CF481E08CA791C06DA57EA58FA5F3
:1014F00098A920E030E04FE753E40E94C503181696
:101500000CF07BC069A97AA98BA99CA920E030E0E6
:101510004AE754E40E941903DC01CB0188A799A78C
:10152000AAA7BBA768A579A58AA59BA520E030E05E
:101530004AEF54E40E941F02DC01CB018CA39DA35F
:10154000AEA3BFA36CA17DA18EA19FA120E030E03E
:1015500040E85FE30E94250488232CF481E090E0BA
:101560009BA38AA33FC06CA17DA18EA19FA120E077
:101570003FEF4FE757E40E94C50318164CF568A5E6
:1015800079A58AA59BA520E030E040E251E40E94C5
:101590001F02DC01CB01BC01CD010E944900DC012E
:1015A000CB019BA38AA30FC088EC90E099A388A3EA
:1015B00088A199A10197F1F799A388A38AA19BA17A
:1015C00001979BA38AA38AA19BA1009769F724C0D6
:1015D0006CA17DA18EA19FA10E944900DC01CB01DD
:1015E0009BA38AA38AA19BA19F8F8E8F8E8D9F8D97
:1015F0000197F1F79F8F8E8F0FC06DA57EA58FA5E8
:1016000098A90E944900DC01CB018CA78CA58D8F85
:101610008D8D8A95F1F78D8F8091AA00282F2F70DC
:101620008FA9882F90E082959295907F9827807F50
:101630009827822B8DAB8091AB009091AE00692FE3
:1016400041E00E9484078091AA006DA90E94900643
:101650008091AB009091AE00692F40E00E9484071A
:1016600080E090E0A0E0B0E4898F9A8FAB8FBC8FD0
:10167000698D7A8D8B8D9C8D20E030E04AEF54E4AB
:101680000E941F02DC01CB018D8B9E8BAF8BB88F2C
:101690006D897E898F89988D20E030E040E85FE396
:1016A0000E94250488232CF481E090E09C8B8B8B96
:1016B0003FC06D897E898F89988D20E03FEF4FE78D
:1016C00057E40E94C50318164CF5698D7A8D8B8DF1
:1016D0009C8D20E030E040E251E40E941F02DC01DA
:1016E000CB01BC01CD010E944900DC01CB019C8BE8
:1016F0008B8B0FC088EC90E09A8B898B89899A89B3
:101700000197F1F79A8B898B8B899C8901979C8B28
:101710008B8B8B899C89009769F714C06D897E89B2
:101720008F89988D0E944900DC01CB019C8B8B8BAB
:101730008B899C89988B8F878F8598890197F1F782
:10174000988B8F878091AB009091AE00692F41E01C
:101750000E94840781E08EAB93C08091AB00909192
:10176000AE00692F41E00E9484078091AA006FA912
:101770000E9490068091AB009091AE00692F40E0EE
:101780000E94840780E090E0A0E0B0E48B879C8713
:10179000AD87BE876B857C858D859E8520E030E09A
:1017A0004AEF54E40E941F02DC01CB018F8398872B
:1017B000A987BA876F81788589859A8520E030E08E
:1017C00040E85FE30E94250488232CF481E090E048
:1017D0009E838D833FC06F81788589859A8520E0BF
:1017E0003FEF4FE757E40E94C50318164CF56B8591
:1017F0007C858D859E8520E030E040E251E40E94AA
:101800001F02DC01CB01BC01CD010E944900DC01BB
:10181000CB019E838D830FC088EC90E09C838B83EB
:101820008B819C810197F1F79C838B838D819E81B5
:1018300001979E838D838D819E81009769F714C0E7
:101840006F81788589859A850E944900DC01CB01EA
:101850009E838D838D819E819A83898389819A81DC
:101860000197F1F79A8389838091AB009091AE0044
:10187000692F41E00E94840781E08EAB01C01EAA5F
:101880008EA9E9960FB6F894DEBF0FBECDBFCF91FB
:10189000DF910895DF93CF93CDB7DEB7A1970FB651
:1018A000F894DEBF0FBECDBF8F8F1E8E1D8E809130
:1018B000AB009091AC00692F41E00E9484078091B9
:1018C000AB009091AD00692F40E00E9484078091A9
:1018D000AF00282F30E039A328A388A199A1843034
:1018E000910539F028A139A12830310509F4BFC08C
:1018F00050C18091AA00982F9F708F8D807F892B77
:101900008D8F8091AB009091AE00692F41E00E94D5
:1019100084078091AA006D8D0E9490068091AB0093
:101920009091AE00692F40E00E9484078091AA0048
:10193000282F2F708F8D882F90E082959295907F21
:101940009827807F9827822B8D8F8091AB00909174
:10195000AE00692F41E00E9484078091AA006D8D3E
:101960000E9490068091AB009091AE00692F40E0FC
:101970000E94840780E090E0A0E0B0E4898F9A8F15
:10198000AB8FBC8F698D7A8D8B8D9C8D20E030E084
:101990004AEF54E40E941F02DC01CB018D8B9E8B29
:1019A000AF8BB88F6D897E898F89988D20E030E06C
:1019B00040E85FE30E94250488232CF481E090E056
:1019C0009C8B8B8B3FC06D897E898F89988D20E0A1
:1019D0003FEF4FE757E40E94C50318164CF5698D99
:1019E0007A8D8B8D9C8D20E030E040E251E40E94A6
:1019F0001F02DC01CB01BC01CD010E944900DC01CA
:101A0000CB019C8B8B8B0FC088EC90E09A8B898BE1
:101A100089899A890197F1F79A8B898B8B899C899F
:101A200001979C8B8B8B8B899C89009769F714C0DD
:101A30006D897E898F89988D0E944900DC01CB01D8
:101A40009C8B8B8B8B899C89988B8F878F859889B2
:101A50000197F1F7988B8F878091AB009091AE0042
:101A6000692F41E00E94840781E08E8F93C08091AE
:101A7000AB009091AE00692F41E00E9484078091F5
:101A8000AA006F8D0E9490068091AB009091AE00ED
:101A9000692F40E00E94840780E090E0A0E0B0E47D
:101AA0008B879C87AD87BE876B857C858D859E8562
:101AB00020E030E04AEF54E40E941F02DC01CB0139
:101AC0008F839887A987BA876F81788589859A855A
:101AD00020E030E040E85FE30E94250488232CF4F6
:101AE00081E090E09E838D833FC06F8178858985FA
:101AF0009A8520E03FEF4FE757E40E94C503181690
:101B00004CF56B857C858D859E8520E030E040E23C
:101B100051E40E941F02DC01CB01BC01CD010E94F7
:101B20004900DC01CB019E838D830FC088EC90E0DF
:101B30009C838B838B819C810197F1F79C838B83A2
:101B40008D819E8101979E838D838D819E810097DB
:101B500069F714C06F81788589859A850E9449004C
:101B6000DC01CB019E838D838D819E819A83898345
:101B700089819A810197F1F79A8389838091AB00DB
:101B80009091AE00692F41E00E94840781E08E8F22
:101B900001C01E8E8E8DA1960FB6F894DEBF0FBECB
:101BA000CDBFCF91DF910895DF93CF9300D000D0C8
:101BB000CDB7DEB79C838B831A8219820EC08981D0
:101BC000282F30E08B819C81FC01E20FF31F808184
:101BD0000E944A0C89818F5F89838981282F30E098
:101BE0008B819C81FC01E20FF31F8081882339F7F0
:101BF0008A810F900F900F900F90CF91DF910895F1
:101C0000DF93CF9300D000D00F92CDB7DEB78A8399
:101C10006B8319828A81882309F44AC08A818530BE
:101C200008F046C08B81882309F442C08B81813142
:101C300008F03EC08A81282F30E03D832C838C81C0
:101C40009D8182309105E9F02C813D812330310561
:101C500034F48C819D818130910561F027C02C8105
:101C60003D8123303105A1F08C819D818430910527
:101C7000B1F01CC08B8181580E94020A81E08983E7
:101C800018C08B8181540E94020A81E0898311C0AF
:101C90008B8181570E94020A81E089830AC08B816F
:101CA00081530E94020A81E0898303C0198201C026
:101CB000198289810F900F900F900F900F90CF9104
:101CC000DF910895DF93CF9300D000D0CDB7DEB77A
:101CD0008A836B834C8319828A816B810E94000EF8
:101CE0008C810E944A0C898389810F900F900F90FC
:101CF0000F90CF91DF910895DF93CF9300D000D064
:101D00000F92CDB7DEB78A836B835D834C831982D4
:101D10008A816B810E94000E8C819D810E94D40D6E
:101D2000898389810F900F900F900F900F90CF9122
:101D3000DF910895DF93CF930F92CDB7DEB719826D
:101D40008091AA0067E040E00E9404078091AB0008
:101D50009091AD00692F41E00E9484078091AB0013
:101D60009091AC00692F40E00E9484078091AA0006
:101D700067E00E94040889838091AB009091AD00D8
:101D8000692F40E00E94840789810F90CF91DF91F5
:101D90000895DF93CF9300D000D00F92CDB7DEB778
:101DA0008B837D836C831A828B81882F90E00896C9
:101DB000880F991F880F991F880F991F0E94020A88
:101DC00019820EC08981282F30E08C819D81FC0111
:101DD000E20FF31F80810E944A0C89818F5F898303
:101DE0008981883078F38A810F900F900F900F903F
:101DF0000F90CF91DF910895DF93CF93CDB7DEB7EA
:101E000065970FB6F894DEBF0FBECDBF198A82E08A
:101E1000888B1A8A81E08C8B82E08B8B88E08D8B9B
:101E2000CE0140960E94AE0882E00E94020A1F8600
:101E300020E630E081E061E0A9010E947C0E21E70C
:101E400030E082E062E0A9010E947C0E81E064E063
:101E50000E940408882361F70E94671029E030E09F
:101E6000B9010E94B80F8F8781E00E94020A2BE718
:101E700030E082E062E0A9010E947C0E8F85805DE7
:101E80000E944A0C80E090E8ABE3B5E48B879C8726
:101E9000AD87BE876B857C858D859E8520E030E093
:101EA0004AEF54E40E941F02DC01CB018F83988724
:101EB000A987BA876F81788589859A8520E030E087
:101EC00040E85FE30E94250488232CF481E090E041
:101ED0009E838D833FC06F81788589859A8520E0B8
:101EE0003FEF4FE757E40E94C50318164CF56B858A
:101EF0007C858D859E8520E030E040E251E40E94A3
:101F00001F02DC01CB01BC01CD010E944900DC01B4
:101F1000CB019E838D830FC088EC90E09C838B83E4
:101F20008B819C810197F1F79C838B838D819E81AE
:101F300001979E838D838D819E81009769F714C0E0
:101F40006F81788589859A850E944900DC01CB01E3
:101F50009E838D838D819E819A83898389819A81D5
:101F60000197F1F79A83898381E00E94020A60CF8A
:101F700097FB092E07260AD077FD04D00CD006D097
:101F800000201AF4709561957F4F0895F6F79095AB
:101F900081959F4F0895AA1BBB1B51E107C0AA1F43
:101FA000BB1FA617B70710F0A61BB70B881F991FFA
:101FB0005A95A9F780959095BC01CD0108952F926F
:101FC0003F924F925F926F927F928F929F92AF92C9
:101FD000BF92CF92DF92EF92FF920F931F93CF9316
:101FE000DF93CDB7DEB7CA1BDB0B0FB6F894DEBFAD
:101FF0000FBECDBF09942A88398848885F846E84D3
:102000007D848C849B84AA84B984C884DF80EE801C
:10201000FD800C811B81AA81B981CE0FD11D0FB625
:10202000F894DEBF0FBECDBFED010895A0E0B0E093
:10203000ECE1F0E10C94E70FEC01A880B980CA80D4
:10204000DB80A114B104C104D10441F484E2A82EC0
:1020500089EDB82E8BE5C82E87E0D82EC601B501D4
:102060002DE133EF41E050E00E94961027EA31E481
:1020700040E050E00E9477107B018C01C601B50161
:102080002DE133EF41E050E00E949610CA01B90102
:102090002CEE34EF4FEF5FEF0E9477106E0D7F1D37
:1020A000801F911F97FF04C061507040804090488E
:1020B000688379838A839B839B013F77C901CDB76E
:1020C000DEB7EAE00C9403100E94161008958DE824
:1020D00090E00E9416100895A0E0B0E080938D007B
:1020E00090938E00A0938F00B09390000895629F0C
:1020F000D001739FF001829FE00DF11D649FE00D00
:10210000F11D929FF00D839FF00D749FF00D659F60
:10211000F00D9927729FB00DE11DF91F639FB00D5F
:10212000E11DF91FBD01CF011124089597FB092E70
:1021300005260ED057FD04D014D00AD0001C38F468
:1021400050954095309521953F4F4F4F5F4F0895E3
:10215000F6F790958095709561957F4F8F4F9F4FC3
:102160000895A1E21A2EAA1BBB1BFD010DC0AA1FD8
:10217000BB1FEE1FFF1FA217B307E407F50720F0F0
:10218000A21BB30BE40BF50B661F771F881F991F6B
:102190001A9469F760957095809590959B01AC01B4
:0A21A000BD01CF010895F894FFCFB0
:1021AA00477565737320746865206E756D62657214
:1021BA00004E756D205B302D395D004E756D626580
:1021CA0072203D2000000000000000000001000015
:1021DA00003A00370034003100390036003300304D
:0A21EA00003B003800350032000011
:00000001FF
